{
  "_format": "hh3-artifact-1",
  "contractName": "MonadGenerator",
  "sourceName": "contracts/MonadGenerator.sol",
  "abi": [
    {
      "inputs": [],
      "stateMutability": "nonpayable",
      "type": "constructor"
    },
    {
      "inputs": [
        {
          "internalType": "address",
          "name": "sender",
          "type": "address"
        },
        {
          "internalType": "uint256",
          "name": "tokenId",
          "type": "uint256"
        },
        {
          "internalType": "address",
          "name": "owner",
          "type": "address"
        }
      ],
      "name": "ERC721IncorrectOwner",
      "type": "error"
    },
    {
      "inputs": [
        {
          "internalType": "address",
          "name": "operator",
          "type": "address"
        },
        {
          "internalType": "uint256",
          "name": "tokenId",
          "type": "uint256"
        }
      ],
      "name": "ERC721InsufficientApproval",
      "type": "error"
    },
    {
      "inputs": [
        {
          "internalType": "address",
          "name": "approver",
          "type": "address"
        }
      ],
      "name": "ERC721InvalidApprover",
      "type": "error"
    },
    {
      "inputs": [
        {
          "internalType": "address",
          "name": "operator",
          "type": "address"
        }
      ],
      "name": "ERC721InvalidOperator",
      "type": "error"
    },
    {
      "inputs": [
        {
          "internalType": "address",
          "name": "owner",
          "type": "address"
        }
      ],
      "name": "ERC721InvalidOwner",
      "type": "error"
    },
    {
      "inputs": [
        {
          "internalType": "address",
          "name": "receiver",
          "type": "address"
        }
      ],
      "name": "ERC721InvalidReceiver",
      "type": "error"
    },
    {
      "inputs": [
        {
          "internalType": "address",
          "name": "sender",
          "type": "address"
        }
      ],
      "name": "ERC721InvalidSender",
      "type": "error"
    },
    {
      "inputs": [
        {
          "internalType": "uint256",
          "name": "tokenId",
          "type": "uint256"
        }
      ],
      "name": "ERC721NonexistentToken",
      "type": "error"
    },
    {
      "anonymous": false,
      "inputs": [
        {
          "indexed": true,
          "internalType": "address",
          "name": "owner",
          "type": "address"
        },
        {
          "indexed": true,
          "internalType": "address",
          "name": "approved",
          "type": "address"
        },
        {
          "indexed": true,
          "internalType": "uint256",
          "name": "tokenId",
          "type": "uint256"
        }
      ],
      "name": "Approval",
      "type": "event"
    },
    {
      "anonymous": false,
      "inputs": [
        {
          "indexed": true,
          "internalType": "address",
          "name": "owner",
          "type": "address"
        },
        {
          "indexed": true,
          "internalType": "address",
          "name": "operator",
          "type": "address"
        },
        {
          "indexed": false,
          "internalType": "bool",
          "name": "approved",
          "type": "bool"
        }
      ],
      "name": "ApprovalForAll",
      "type": "event"
    },
    {
      "anonymous": false,
      "inputs": [
        {
          "indexed": true,
          "internalType": "address",
          "name": "from",
          "type": "address"
        },
        {
          "indexed": true,
          "internalType": "address",
          "name": "to",
          "type": "address"
        },
        {
          "indexed": true,
          "internalType": "uint256",
          "name": "tokenId",
          "type": "uint256"
        }
      ],
      "name": "Transfer",
      "type": "event"
    },
    {
      "inputs": [
        {
          "internalType": "address",
          "name": "to",
          "type": "address"
        },
        {
          "internalType": "uint256",
          "name": "tokenId",
          "type": "uint256"
        }
      ],
      "name": "approve",
      "outputs": [],
      "stateMutability": "nonpayable",
      "type": "function"
    },
    {
      "inputs": [
        {
          "internalType": "address",
          "name": "owner",
          "type": "address"
        }
      ],
      "name": "balanceOf",
      "outputs": [
        {
          "internalType": "uint256",
          "name": "",
          "type": "uint256"
        }
      ],
      "stateMutability": "view",
      "type": "function"
    },
    {
      "inputs": [
        {
          "internalType": "uint256",
          "name": "tokenId",
          "type": "uint256"
        }
      ],
      "name": "burn",
      "outputs": [],
      "stateMutability": "nonpayable",
      "type": "function"
    },
    {
      "inputs": [
        {
          "internalType": "uint256",
          "name": "tokenId",
          "type": "uint256"
        }
      ],
      "name": "getApproved",
      "outputs": [
        {
          "internalType": "address",
          "name": "",
          "type": "address"
        }
      ],
      "stateMutability": "view",
      "type": "function"
    },
    {
      "inputs": [
        {
          "internalType": "address",
          "name": "owner",
          "type": "address"
        },
        {
          "internalType": "address",
          "name": "operator",
          "type": "address"
        }
      ],
      "name": "isApprovedForAll",
      "outputs": [
        {
          "internalType": "bool",
          "name": "",
          "type": "bool"
        }
      ],
      "stateMutability": "view",
      "type": "function"
    },
    {
      "inputs": [],
      "name": "name",
      "outputs": [
        {
          "internalType": "string",
          "name": "",
          "type": "string"
        }
      ],
      "stateMutability": "view",
      "type": "function"
    },
    {
      "inputs": [
        {
          "internalType": "uint256",
          "name": "tokenId",
          "type": "uint256"
        }
      ],
      "name": "ownerOf",
      "outputs": [
        {
          "internalType": "address",
          "name": "",
          "type": "address"
        }
      ],
      "stateMutability": "view",
      "type": "function"
    },
    {
      "inputs": [
        {
          "internalType": "address",
          "name": "to",
          "type": "address"
        },
        {
          "internalType": "string",
          "name": "_logoColor",
          "type": "string"
        },
        {
          "internalType": "string",
          "name": "_backgroundColor",
          "type": "string"
        }
      ],
      "name": "safeMint",
      "outputs": [
        {
          "internalType": "uint256",
          "name": "",
          "type": "uint256"
        }
      ],
      "stateMutability": "nonpayable",
      "type": "function"
    },
    {
      "inputs": [
        {
          "internalType": "address",
          "name": "from",
          "type": "address"
        },
        {
          "internalType": "address",
          "name": "to",
          "type": "address"
        },
        {
          "internalType": "uint256",
          "name": "tokenId",
          "type": "uint256"
        }
      ],
      "name": "safeTransferFrom",
      "outputs": [],
      "stateMutability": "nonpayable",
      "type": "function"
    },
    {
      "inputs": [
        {
          "internalType": "address",
          "name": "from",
          "type": "address"
        },
        {
          "internalType": "address",
          "name": "to",
          "type": "address"
        },
        {
          "internalType": "uint256",
          "name": "tokenId",
          "type": "uint256"
        },
        {
          "internalType": "bytes",
          "name": "data",
          "type": "bytes"
        }
      ],
      "name": "safeTransferFrom",
      "outputs": [],
      "stateMutability": "nonpayable",
      "type": "function"
    },
    {
      "inputs": [
        {
          "internalType": "address",
          "name": "operator",
          "type": "address"
        },
        {
          "internalType": "bool",
          "name": "approved",
          "type": "bool"
        }
      ],
      "name": "setApprovalForAll",
      "outputs": [],
      "stateMutability": "nonpayable",
      "type": "function"
    },
    {
      "inputs": [
        {
          "internalType": "bytes4",
          "name": "interfaceId",
          "type": "bytes4"
        }
      ],
      "name": "supportsInterface",
      "outputs": [
        {
          "internalType": "bool",
          "name": "",
          "type": "bool"
        }
      ],
      "stateMutability": "view",
      "type": "function"
    },
    {
      "inputs": [],
      "name": "symbol",
      "outputs": [
        {
          "internalType": "string",
          "name": "",
          "type": "string"
        }
      ],
      "stateMutability": "view",
      "type": "function"
    },
    {
      "inputs": [
        {
          "internalType": "uint256",
          "name": "",
          "type": "uint256"
        }
      ],
      "name": "tokenIdToColors",
      "outputs": [
        {
          "internalType": "string",
          "name": "logo",
          "type": "string"
        },
        {
          "internalType": "string",
          "name": "background",
          "type": "string"
        }
      ],
      "stateMutability": "view",
      "type": "function"
    },
    {
      "inputs": [
        {
          "internalType": "uint256",
          "name": "tokenId",
          "type": "uint256"
        }
      ],
      "name": "tokenURI",
      "outputs": [
        {
          "internalType": "string",
          "name": "",
          "type": "string"
        }
      ],
      "stateMutability": "view",
      "type": "function"
    },
    {
      "inputs": [],
      "name": "totalSupply",
      "outputs": [
        {
          "internalType": "uint256",
          "name": "",
          "type": "uint256"
        }
      ],
      "stateMutability": "view",
      "type": "function"
    },
    {
      "inputs": [
        {
          "internalType": "address",
          "name": "from",
          "type": "address"
        },
        {
          "internalType": "address",
          "name": "to",
          "type": "address"
        },
        {
          "internalType": "uint256",
          "name": "tokenId",
          "type": "uint256"
        }
      ],
      "name": "transferFrom",
      "outputs": [],
      "stateMutability": "nonpayable",
      "type": "function"
    }
  ],
  "bytecode": "0x608060405234801561000f575f5ffd5b506040518060400160405280600e81526020016d26b7b730b223b2b732b930ba37b960911b815250604051806040016040528060048152602001634d4f4e4760e01b815250815f9081610062919061010f565b50600161006f828261010f565b5050506101c9565b634e487b7160e01b5f52604160045260245ffd5b600181811c9082168061009f57607f821691505b6020821081036100bd57634e487b7160e01b5f52602260045260245ffd5b50919050565b601f82111561010a57805f5260205f20601f840160051c810160208510156100e85750805b601f840160051c820191505b81811015610107575f81556001016100f4565b50505b505050565b81516001600160401b0381111561012857610128610077565b61013c81610136845461008b565b846100c3565b6020601f82116001811461016e575f83156101575750848201515b5f19600385901b1c1916600184901b178455610107565b5f84815260208120601f198516915b8281101561019d578785015182556020948501946001909201910161017d565b50848210156101ba57868401515f19600387901b60f8161c191681555b50505050600190811b01905550565b611a8d806101d65f395ff3fe608060405234801561000f575f5ffd5b5060043610610106575f3560e01c806342966c681161009e578063a22cb4651161006e578063a22cb46514610221578063b88d4fde14610234578063c87b56dd14610247578063e985e9c51461025a578063eca81d421461026d575f5ffd5b806342966c68146101e05780636352211e146101f357806370a082311461020657806395d89b4114610219575f5ffd5b806318160ddd116100d957806318160ddd1461018757806323b872dd146101995780632afeda4c146101ac57806342842e0e146101cd575f5ffd5b806301ffc9a71461010a57806306fdde0314610132578063081812fc14610147578063095ea7b314610172575b5f5ffd5b61011d610118366004611048565b610280565b60405190151581526020015b60405180910390f35b61013a6102d1565b6040516101299190611091565b61015a6101553660046110a3565b610360565b6040516001600160a01b039091168152602001610129565b6101856101803660046110d5565b610387565b005b6006545b604051908152602001610129565b6101856101a73660046110fd565b610396565b6101bf6101ba3660046110a3565b610424565b604051610129929190611137565b6101856101db3660046110fd565b61054b565b6101856101ee3660046110a3565b61056a565b61015a6102013660046110a3565b610575565b61018b610214366004611164565b61057f565b61013a6105c4565b61018561022f36600461117d565b6105d3565b6101856102423660046111ca565b6105de565b61013a6102553660046110a3565b6105f6565b61011d6102683660046112a7565b61066b565b61018b61027b36600461131d565b610698565b5f6001600160e01b031982166380ac58cd60e01b14806102b057506001600160e01b03198216635b5e139f60e01b145b806102cb57506301ffc9a760e01b6001600160e01b03198316145b92915050565b60605f80546102df9061139d565b80601f016020809104026020016040519081016040528092919081815260200182805461030b9061139d565b80156103565780601f1061032d57610100808354040283529160200191610356565b820191905f5260205f20905b81548152906001019060200180831161033957829003601f168201915b5050505050905090565b5f61036a82610770565b505f828152600460205260409020546001600160a01b03166102cb565b6103928282336107a8565b5050565b6001600160a01b0382166103c457604051633250574960e11b81525f60048201526024015b60405180910390fd5b5f6103d08383336107b5565b9050836001600160a01b0316816001600160a01b03161461041e576040516364283d7b60e01b81526001600160a01b03808616600483015260248201849052821660448201526064016103bb565b50505050565b60076020525f908152604090208054819061043e9061139d565b80601f016020809104026020016040519081016040528092919081815260200182805461046a9061139d565b80156104b55780601f1061048c576101008083540402835291602001916104b5565b820191905f5260205f20905b81548152906001019060200180831161049857829003601f168201915b5050505050908060010180546104ca9061139d565b80601f01602080910402602001604051908101604052809291908181526020018280546104f69061139d565b80156105415780601f1061051857610100808354040283529160200191610541565b820191905f5260205f20905b81548152906001019060200180831161052457829003601f168201915b5050505050905082565b61056583838360405180602001604052805f8152506105de565b505050565b6103925f82336107b5565b5f6102cb82610770565b5f6001600160a01b0382166105a9576040516322718ad960e21b81525f60048201526024016103bb565b506001600160a01b03165f9081526003602052604090205490565b6060600180546102df9061139d565b6103923383836108a9565b6105e9848484610396565b61041e3385858585610947565b5f81815260076020526040812060609161060f84610a6f565b61061883610aff565b6040516020016106299291906113ec565b604051602081830303815290604052905061064381610b5b565b60405160200161065391906114bf565b60405160208183030381529060405292505050919050565b6001600160a01b039182165f90815260056020908152604080832093909416825291909152205460ff1690565b600680545f91829190826106ab83611504565b909155506040805160606020601f8a018190040282018101835291810188815292935091829189908990819085018382808284375f92019190915250505090825250604080516020601f8801819004810282018101909252868152918101919087908790819084018382808284375f920182905250939094525050838152600760205260409020825190915081906107439082611560565b50602082015160018201906107589082611560565b509050506107668782610b81565b9695505050505050565b5f818152600260205260408120546001600160a01b0316806102cb57604051637e27328960e01b8152600481018490526024016103bb565b6105658383836001610b9a565b5f828152600260205260408120546001600160a01b03908116908316156107e1576107e1818486610c9e565b6001600160a01b0381161561081b576107fc5f855f5f610b9a565b6001600160a01b0381165f90815260036020526040902080545f190190555b6001600160a01b03851615610849576001600160a01b0385165f908152600360205260409020805460010190555b5f8481526002602052604080822080546001600160a01b0319166001600160a01b0389811691821790925591518793918516917fddf252ad1be2c89b69c2b068fc378daa952ba7f163c4a11628f55a4df523b3ef91a490505b9392505050565b6001600160a01b0382166108db57604051630b61174360e31b81526001600160a01b03831660048201526024016103bb565b6001600160a01b038381165f81815260056020908152604080832094871680845294825291829020805460ff191686151590811790915591519182527f17307eab39ab6107e8899845ad3d59bd9653f200f220920489ca2b5937696c31910160405180910390a3505050565b6001600160a01b0383163b15610a6857604051630a85bd0160e11b81526001600160a01b0384169063150b7a029061098990889088908790879060040161161b565b6020604051808303815f875af19250505080156109c3575060408051601f3d908101601f191682019092526109c09181019061164d565b60015b610a2a573d8080156109f0576040519150601f19603f3d011682016040523d82523d5f602084013e6109f5565b606091505b5080515f03610a2257604051633250574960e11b81526001600160a01b03851660048201526024016103bb565b805160208201fd5b6001600160e01b03198116630a85bd0160e11b14610a6657604051633250574960e11b81526001600160a01b03851660048201526024016103bb565b505b5050505050565b60605f610a7b83610d02565b60010190505f8167ffffffffffffffff811115610a9a57610a9a6111b6565b6040519080825280601f01601f191660200182016040528015610ac4576020820181803683370190505b5090508181016020015b5f19016f181899199a1a9b1b9c1cb0b131b232b360811b600a86061a8153600a8504945084610ace57509392505050565b60605f82600101835f01604051602001610b1a9291906116d6565b6040516020818303038152906040529050610b3481610b5b565b604051602001610b44919061199d565b604051602081830303815290604052915050919050565b60606102cb82604051806060016040528060408152602001611a18604091396001610dd9565b610392828260405180602001604052805f815250610f54565b8080610bae57506001600160a01b03821615155b15610c6f575f610bbd84610770565b90506001600160a01b03831615801590610be95750826001600160a01b0316816001600160a01b031614155b8015610bfc5750610bfa818461066b565b155b15610c255760405163a9fbf51f60e01b81526001600160a01b03841660048201526024016103bb565b8115610c6d5783856001600160a01b0316826001600160a01b03167f8c5be1e5ebec7d5bd14f71427d1e84f3dd0314c0f7b2291e5b200ac8c7c3b92560405160405180910390a45b505b50505f90815260046020526040902080546001600160a01b0319166001600160a01b0392909216919091179055565b610ca9838383610f6b565b610565576001600160a01b038316610cd757604051637e27328960e01b8152600481018290526024016103bb565b60405163177e802f60e01b81526001600160a01b0383166004820152602481018290526044016103bb565b5f8072184f03e93ff9f4daa797ed6e38ed64bf6a1f0160401b8310610d405772184f03e93ff9f4daa797ed6e38ed64bf6a1f0160401b830492506040015b6d04ee2d6d415b85acef81000000008310610d6c576d04ee2d6d415b85acef8100000000830492506020015b662386f26fc100008310610d8a57662386f26fc10000830492506010015b6305f5e1008310610da2576305f5e100830492506008015b6127108310610db657612710830492506004015b60648310610dc8576064830492506002015b600a83106102cb5760010192915050565b606083515f03610df7575060408051602081019091525f81526108a2565b5f82610e2757600385516004610e0d91906119ce565b610e189060026119e5565b610e2291906119f8565b610e4c565b600385516002610e3791906119e5565b610e4191906119f8565b610e4c9060046119ce565b90505f8167ffffffffffffffff811115610e6857610e686111b6565b6040519080825280601f01601f191660200182016040528015610e92576020820181803683370190505b509050600185016020820187885189016020810180515f82525b82841015610f07576003840193508351603f8160121c168701518653600186019550603f81600c1c168701518653600186019550603f8160061c168701518653600186019550603f8116870151865350600185019450610eac565b905250508515610f4857600388510660018114610f2b5760028114610f3e57610f46565b603d6001830353603d6002830353610f46565b603d60018303535b505b50909695505050505050565b610f5e8383610fcf565b610565335f858585610947565b5f6001600160a01b03831615801590610fc75750826001600160a01b0316846001600160a01b03161480610fa45750610fa4848461066b565b80610fc757505f828152600460205260409020546001600160a01b038481169116145b949350505050565b6001600160a01b038216610ff857604051633250574960e11b81525f60048201526024016103bb565b5f61100483835f6107b5565b90506001600160a01b03811615610565576040516339e3563760e11b81525f60048201526024016103bb565b6001600160e01b031981168114611045575f5ffd5b50565b5f60208284031215611058575f5ffd5b81356108a281611030565b5f81518084528060208401602086015e5f602082860101526020601f19601f83011685010191505092915050565b602081525f6108a26020830184611063565b5f602082840312156110b3575f5ffd5b5035919050565b80356001600160a01b03811681146110d0575f5ffd5b919050565b5f5f604083850312156110e6575f5ffd5b6110ef836110ba565b946020939093013593505050565b5f5f5f6060848603121561110f575f5ffd5b611118846110ba565b9250611126602085016110ba565b929592945050506040919091013590565b604081525f6111496040830185611063565b828103602084015261115b8185611063565b95945050505050565b5f60208284031215611174575f5ffd5b6108a2826110ba565b5f5f6040838503121561118e575f5ffd5b611197836110ba565b9150602083013580151581146111ab575f5ffd5b809150509250929050565b634e487b7160e01b5f52604160045260245ffd5b5f5f5f5f608085870312156111dd575f5ffd5b6111e6856110ba565b93506111f4602086016110ba565b925060408501359150606085013567ffffffffffffffff811115611216575f5ffd5b8501601f81018713611226575f5ffd5b803567ffffffffffffffff811115611240576112406111b6565b604051601f8201601f19908116603f0116810167ffffffffffffffff8111828210171561126f5761126f6111b6565b604052818152828201602001891015611286575f5ffd5b816020840160208301375f6020838301015280935050505092959194509250565b5f5f604083850312156112b8575f5ffd5b6112c1836110ba565b91506112cf602084016110ba565b90509250929050565b5f5f83601f8401126112e8575f5ffd5b50813567ffffffffffffffff8111156112ff575f5ffd5b602083019150836020828501011115611316575f5ffd5b9250929050565b5f5f5f5f5f60608688031215611331575f5ffd5b61133a866110ba565b9450602086013567ffffffffffffffff811115611355575f5ffd5b611361888289016112d8565b909550935050604086013567ffffffffffffffff811115611380575f5ffd5b61138c888289016112d8565b969995985093965092949392505050565b600181811c908216806113b157607f821691505b6020821081036113cf57634e487b7160e01b5f52602260045260245ffd5b50919050565b5f81518060208401855e5f93019283525090919050565b607b60f81b81526f226e616d65223a20224d6f6e6164202360801b60018201525f61141a60118301856113d5565b6201116160ed1b81527f226465736372697074696f6e223a20225468697320636f6f6c204d6f6e61642060038201527f6c6f676f20697320616e2073766720637265617465642066726f6d206f6e2d6360238201527103430b4b71036b2ba30b230ba30b9909116160751b6043820152691134b6b0b3b2911d101160b11b60558201526114aa605f8201856113d5565b6222207d60e81b815260030195945050505050565b7f646174613a6170706c69636174696f6e2f6a736f6e3b6261736536342c00000081525f6108a2601d8301846113d5565b634e487b7160e01b5f52601160045260245ffd5b5f60018201611515576115156114f0565b5060010190565b601f82111561056557805f5260205f20601f840160051c810160208510156115415750805b601f840160051c820191505b81811015610a68575f815560010161154d565b815167ffffffffffffffff81111561157a5761157a6111b6565b61158e81611588845461139d565b8461151c565b6020601f8211600181146115c0575f83156115a95750848201515b5f19600385901b1c1916600184901b178455610a68565b5f84815260208120601f198516915b828110156115ef57878501518255602094850194600190920191016115cf565b508482101561160c57868401515f19600387901b60f8161c191681555b50505050600190811b01905550565b6001600160a01b03858116825284166020820152604081018390526080606082018190525f9061076690830184611063565b5f6020828403121561165d575f5ffd5b81516108a281611030565b5f81546116748161139d565b60018216801561168b57600181146116a0576116cd565b60ff19831686528115158202860193506116cd565b845f5260205f205f5b838110156116c5578154888201526001909101906020016116a9565b505081860193505b50505092915050565b7f3c7376672077696474683d2234383022206865696768743d223438302220766981527f6577426f783d223020302034383020343830222066696c6c3d226e6f6e65222060208201527f786d6c6e733d22687474703a2f2f7777772e77332e6f72672f323030302f737660408201526233911f60e91b60608201527f3c726563742077696474683d2234383022206865696768743d2234383022206660638201526434b6361e9160d91b60838201525f6117936088830185611668565b6211179f60e91b81527f3c7061746820643d224d3234302e313335203930433139362e3738203930203960038201527f30203139362e363820393020323430433930203238332e333138203139362e3760238201527f3820333930203234302e31333520333930433238332e3439312033393020333960438201527f302e323733203238332e333136203339302e32373320323430433339302e323760638201527f33203139362e363832203238332e343933203930203234302e3133352039305a60838201527f4d3231362e373339203332352e373734433139382e343537203332302e37393660a38201527f203134392e333032203233342e3839203135342e323835203231362e3632344360c38201527f3135392e323638203139382e333537203234352e323531203134392e3234382060e38201527f3236332e353333203135342e323236433238312e383137203135392e323034206101038201527f3333302e393731203234352e313038203332352e393839203236332e333736436101238201527f3332312e303035203238312e363432203233352e303233203333302e373532206101438201527f3231362e373339203332352e3737345a222066696c6c3d22000000000000000061016382015261115b61198b61197c61017b840187611668565b6211179f60e91b815260030190565b651e17b9bb339f60d11b815260060190565b7f646174613a696d6167652f7376672b786d6c3b6261736536342c00000000000081525f6108a2601a8301846113d5565b80820281158282048414176102cb576102cb6114f0565b808201808211156102cb576102cb6114f0565b5f82611a1257634e487b7160e01b5f52601260045260245ffd5b50049056fe4142434445464748494a4b4c4d4e4f505152535455565758595a6162636465666768696a6b6c6d6e6f707172737475767778797a303132333435363738392b2fa2646970667358221220c74dfdbfb0e185b72fbc2e28fae027da5b3753cf600db0f8a67479501467b79364736f6c634300081c0033",
  "linkReferences": {},
  "deployedLinkReferences": {},
  "immutableReferences": {},
  "inputSourceName": "project/contracts/MonadGenerator.sol",
  "buildInfoId": "solc-0_8_28-bdbaebbf68853f27b596b947d91e9d1384806bca"
}